:10000000758920758DFD759850C2B5D28EC290C28B
:1000100091C292C293C294C295C296C297D2B5C2FF
:10002000B69000E4E493600D112C80F8F599A330AC
:1000300099FDC2992275817075D000743812066BD3
:100040001206DE740E12066B1206DE7532101206F0
:1000500056740612066B1206DE748012066B1206C8
:10006000DE1206DE9000E4E493600A12067C1206BB
:10007000DEA30200670201042E2D002D2E2E2E007D
:100080002D2E2D2E002D2E2E002E002E2E2D2E004C
:100090002D2D2E002E2E2E2E002E2E002E2D2D2D0F
:1000A000002D2E2D002E2D2E2E002D2D002D2E005C
:1000B0002D2D2D002E2D2D2E002D2D2E2D002E2DF3
:1000C0002E002E2E2E002D002E2E2D002E2E2E2D0B
:1000D000002E2D2D002D2E2E2D002D2E2D2D002D00
:1000E0002D2E2E0047726F75702030332C20426CFD
:1000F0007565746F6F746820496E746572666163AC
:10010000696E6700E548120109F59975321012060B
:1001100056120662E599B43105D290020111E599B3
:10012000B43205D291020111E599B43305D292029D
:100130000111E599B43405D293020111E599B43562
:1001400005D294020111E599B43605D29502011148
:10015000E599B43705D296020111E599B43805D274
:1001600097020111E599B42105C290020111E599A8
:10017000B43905C2B5020111E599B42805D2B5021A
:100180000111E599B42B05D2B6020111E599B43DF0
:1001900005C2B6020111E599B42205C2B7020111E8
:1001A000E599B43A05D2B7020111E599B44005C208
:1001B00091020111E599B42305C292020111E5995A
:1001C000B42405C293020111E599B42505C2940235
:1001D0000111E599B45E05C295020111E599B426B5
:1001E00005C296020111E599B42A05C297020111D0
:1001F000E599B4410690007802030EE599B44206F1
:1002000090007B02030EE599B44306900080020340
:100210000EE599B4440690008502030EE599B445B5
:100220000690008902030EE599B4460690008B0201
:10023000030EE599B4470690009002030EE599B4C9
:10024000480690009402030EE599B449069000997F
:1002500002030EE599B44A0690009C02030EE5994C
:10026000B44B069000A102030EE599B44C06900031
:10027000A502030EE599B44D069000AA02030EE50F
:1002800099B44E069000AD02030EE599B44F069066
:1002900000B002030EE599B450069000B402030EBC
:1002A000E599B451069000B902030EE599B45206DF
:1002B0009000BE02030EE599B453069000C20203FB
:1002C0000EE599B454069000C602030EE599B455A4
:1002D000069000C802030EE599B456069000CC02C1
:1002E000030EE599B457069000D102030EE599B4C8
:1002F00058069000D502030EE599B459069000DA2D
:1003000002030EE599B45A179000DF02030EE4933E
:10031000700302011112067C1206DEA302030EE531
:1003200099B43C0302033AE599B43F03020366E53E
:1003300099B42C030201040201047532101206560E
:10034000120662E599B45A0B744112067C1206DE5D
:10035000020340E599B43E0302004B240112067CDF
:100360001206DE02034075321012065678007A003B
:100370007E007F007D01120662E599B42F03020022
:100380004BE599B429030203B5E599BD010280123A
:10039000BD02028012BD03028012BD04028012025F
:1003A000004BF80D020376FE0D020376FA0D0203F0
:1003B00076FF020376B82E0CBE2D09BA0006BF00E8
:1003C0000302053EB82D0CBE2E09BA2E06BF2E0321
:1003D000020543B82D0CBE2E09BA2D06BF2E03020E
:1003E0000548B82D0CBE2E09BA2E06BF0003020523
:1003F0004DB82E0CBE0009BA0006BF00030205521C
:10040000B82E0CBE2E09BA2D06BF2E03020557B812
:100410002D0CBE2D09BA2E06BF000302055CB82EB6
:100420000CBE2E09BA2E06BF2E03020561B82E0C93
:10043000BE2E09BA0006BF0003020566B82E0CBE28
:100440002D09BA2D06BF2D0302056BB82D0CBE2E4B
:1004500009BA2D06BF0003020570B82E0CBE2D0987
:10046000BA2E06BF2E03020575B82D0CBE2D09BA93
:100470000006BF000302057AB82D0CBE2E09BA0093
:1004800006BF000302057FB82D0CBE2D09BA2D064C
:10049000BF0003020584B82E0CBE2D09BA2D06BF7D
:1004A0002E03020589B82D0CBE2D09BA2E06BF2DCC
:1004B0000302058EB82E0CBE2D09BA2E06BF00030E
:1004C000020593B82E0CBE2E09BA2E06BF000302F9
:1004D0000598B82D0CBE0009BA0006BF000302053E
:1004E0009DB82E0CBE2E09BA2D06BF00030205A230
:1004F000B82E0CBE2E09BA2E06BF2D030205A7B8D2
:100500002E0CBE2D09BA2D06BF00030205ACB82D76
:100510000CBE2E09BA2E06BF2D030205B1B82D0C54
:10052000BE2E09BA2D06BF2D030205B6B82D0CBE8E
:100530002D09BA2E06BF2E030205BB02036C7441BF
:100540000205C074420205C074430205C07444022F
:1005500005C074450205C074460205C07447020513
:10056000C074480205C074490205C0744A0205C03F
:10057000744B0205C0744C0205C0744D0205C07472
:100580004E0205C0744F0205C074500205C074517C
:100590000205C074520205C074530205C0745402AF
:1005A00005C074550205C074560205C07457020593
:1005B000C074580205C074590205C0745A0205C0BF
:1005C00012067C1206DEB82D030205DBB82E0302EC
:1005D00005E1B830030205E702036C1206AE02051E
:1005E000EA1206CC0205EA02036CBE2D030205FFE7
:1005F000BE2E03020605BE300302060B02036C1278
:1006000006AE02060E1206CC02060E02036CBA2DCE
:1006100003020623BA2E03020629BA300302062F6C
:1006200002036C1206AE0206321206CC0206320239
:10063000036CBF2D03020647BF2E0302064DBF30D9
:100640000302065302036C1206AE02036C1206CCC0
:1006500002036C02036C1206DE740112066B1206B2
:10066000DE22D1DEE4C2983098FD2212069EF5A06B
:10067000C2B4C2B3D2B21206DEC2B22212069EF5D4
:10068000A0D2B4C2B3D2B21206DEC2B2D5320E02CA
:1006900006921206DE74C012066B1206DE22D2A784
:1006A000C2B4D2B3C2B2D1DED2B220A7F722D29066
:1006B000C2B71206DE1206DE1206DE1206DE1206D1
:1006C000DE1206DEC290D2B71206DE22D290C2B788
:1006D0001206DE1206DEC290D2B71206DE227901C1
:0D06E0007BDC7CDCDCFEDBFAD9F62280FE40
:00000001FF
